{
  "contractName": "SimplePaymentChannel",
  "abi": [
    {
      "constant": true,
      "inputs": [],
      "name": "expiration",
      "outputs": [
        {
          "name": "",
          "type": "uint256"
        }
      ],
      "payable": false,
      "stateMutability": "view",
      "type": "function"
    },
    {
      "constant": true,
      "inputs": [],
      "name": "recipient",
      "outputs": [
        {
          "name": "",
          "type": "address"
        }
      ],
      "payable": false,
      "stateMutability": "view",
      "type": "function"
    },
    {
      "constant": true,
      "inputs": [],
      "name": "sender",
      "outputs": [
        {
          "name": "",
          "type": "address"
        }
      ],
      "payable": false,
      "stateMutability": "view",
      "type": "function"
    },
    {
      "inputs": [
        {
          "name": "_recipient",
          "type": "address"
        },
        {
          "name": "_duration",
          "type": "uint256"
        }
      ],
      "payable": true,
      "stateMutability": "payable",
      "type": "constructor"
    },
    {
      "anonymous": false,
      "inputs": [
        {
          "indexed": false,
          "name": "sender",
          "type": "address"
        },
        {
          "indexed": false,
          "name": "recipient",
          "type": "address"
        },
        {
          "indexed": false,
          "name": "expiration",
          "type": "uint256"
        },
        {
          "indexed": false,
          "name": "deposit",
          "type": "uint256"
        }
      ],
      "name": "ChannelOpened",
      "type": "event"
    },
    {
      "anonymous": false,
      "inputs": [
        {
          "indexed": false,
          "name": "senderBalance",
          "type": "uint256"
        },
        {
          "indexed": false,
          "name": "recipientBalance",
          "type": "uint256"
        }
      ],
      "name": "ChannelClosed",
      "type": "event"
    },
    {
      "constant": false,
      "inputs": [
        {
          "name": "_balance",
          "type": "uint256"
        },
        {
          "name": "_signedMessage",
          "type": "bytes"
        }
      ],
      "name": "closeChannel",
      "outputs": [],
      "payable": false,
      "stateMutability": "nonpayable",
      "type": "function"
    },
    {
      "constant": false,
      "inputs": [
        {
          "name": "_expiration",
          "type": "uint256"
        }
      ],
      "name": "extendExpiration",
      "outputs": [],
      "payable": false,
      "stateMutability": "nonpayable",
      "type": "function"
    },
    {
      "constant": false,
      "inputs": [],
      "name": "claimTimeout",
      "outputs": [],
      "payable": false,
      "stateMutability": "nonpayable",
      "type": "function"
    }
  ],
  "bytecode": "0x6080604052604051604080610a20833981018060405281019080805190602001909291908051906020019092919050505060003411151561003f57600080fd5b8173ffffffffffffffffffffffffffffffffffffffff163373ffffffffffffffffffffffffffffffffffffffff161415151561007a57600080fd5b336000806101000a81548173ffffffffffffffffffffffffffffffffffffffff021916908373ffffffffffffffffffffffffffffffffffffffff16021790555081600160006101000a81548173ffffffffffffffffffffffffffffffffffffffff021916908373ffffffffffffffffffffffffffffffffffffffff1602179055508042016002819055507f9957eac353f4e194b7faa928965f2dfdedd22f864e067b5b78f98d50157c2df56000809054906101000a900473ffffffffffffffffffffffffffffffffffffffff16600160009054906101000a900473ffffffffffffffffffffffffffffffffffffffff1660025434604051808573ffffffffffffffffffffffffffffffffffffffff1673ffffffffffffffffffffffffffffffffffffffff1681526020018473ffffffffffffffffffffffffffffffffffffffff1673ffffffffffffffffffffffffffffffffffffffff16815260200183815260200182815260200194505050505060405180910390a1505061081f806102016000396000f300608060405260043610610078576000357c0100000000000000000000000000000000000000000000000000000000900463ffffffff1680630a114a701461007d5780630dd703d9146100aa5780630e1da6c31461011d5780634665096d1461013457806366d003ac1461015f57806367e404ce146101b6575b600080fd5b34801561008957600080fd5b506100a86004803603810190808035906020019092919050505061020d565b005b3480156100b657600080fd5b5061011b60048036038101908080359060200190929190803590602001908201803590602001908080601f0160208091040260200160405190810160405280939291908181526020018383808284378201915050505050509192919290505050610282565b005b34801561012957600080fd5b5061013261044a565b005b34801561014057600080fd5b50610149610495565b6040518082815260200191505060405180910390f35b34801561016b57600080fd5b5061017461049b565b604051808273ffffffffffffffffffffffffffffffffffffffff1673ffffffffffffffffffffffffffffffffffffffff16815260200191505060405180910390f35b3480156101c257600080fd5b506101cb6104c1565b604051808273ffffffffffffffffffffffffffffffffffffffff1673ffffffffffffffffffffffffffffffffffffffff16815260200191505060405180910390f35b6000809054906101000a900473ffffffffffffffffffffffffffffffffffffffff1673ffffffffffffffffffffffffffffffffffffffff163373ffffffffffffffffffffffffffffffffffffffff1614151561026857600080fd5b6002548111151561027857600080fd5b8060028190555050565b600080600160009054906101000a900473ffffffffffffffffffffffffffffffffffffffff1673ffffffffffffffffffffffffffffffffffffffff163373ffffffffffffffffffffffffffffffffffffffff161415156102e157600080fd5b6102eb84846104e6565b15156102f657600080fd5b839150600090503073ffffffffffffffffffffffffffffffffffffffff163184111561033b573073ffffffffffffffffffffffffffffffffffffffff16319150610368565b610365823073ffffffffffffffffffffffffffffffffffffffff163161062790919063ffffffff16565b90505b600160009054906101000a900473ffffffffffffffffffffffffffffffffffffffff1673ffffffffffffffffffffffffffffffffffffffff166108fc839081150290604051600060405180830381858888f193505050501580156103d0573d6000803e3d6000fd5b507f1273b19bd37db7541ec10aebcb7899427619b2685565bd3c7b184c2732f8118e8183604051808381526020018281526020019250505060405180910390a16000809054906101000a900473ffffffffffffffffffffffffffffffffffffffff1673ffffffffffffffffffffffffffffffffffffffff16ff5b600254421015151561045b57600080fd5b6000809054906101000a900473ffffffffffffffffffffffffffffffffffffffff1673ffffffffffffffffffffffffffffffffffffffff16ff5b60025481565b600160009054906101000a900473ffffffffffffffffffffffffffffffffffffffff1681565b6000809054906101000a900473ffffffffffffffffffffffffffffffffffffffff1681565b6000806105b63085604051602001808373ffffffffffffffffffffffffffffffffffffffff1673ffffffffffffffffffffffffffffffffffffffff166c01000000000000000000000000028152601401828152602001925050506040516020818303038152906040526040518082805190602001908083835b602083101515610584578051825260208201915060208101905060208303925061055f565b6001836020036101000a0380198251168184511680821785525050505050509050019150506040518091039020610640565b90506000809054906101000a900473ffffffffffffffffffffffffffffffffffffffff1673ffffffffffffffffffffffffffffffffffffffff166106078483600019166106fb90919063ffffffff16565b73ffffffffffffffffffffffffffffffffffffffff161491505092915050565b600082821115151561063557fe5b818303905092915050565b60008160405160200180807f19457468657265756d205369676e6564204d6573736167653a0a333200000000815250601c0182600019166000191681526020019150506040516020818303038152906040526040518082805190602001908083835b6020831015156106c757805182526020820191506020810190506020830392506106a2565b6001836020036101000a03801982511681845116808217855250505050505090500191505060405180910390209050919050565b6000806000806041855114151561071557600093506107ea565b6020850151925060408501519150606085015160001a9050601b8160ff16101561074057601b810190505b601b8160ff16141580156107585750601c8160ff1614155b1561076657600093506107ea565b600186828585604051600081526020016040526040518085600019166000191681526020018460ff1660ff1681526020018360001916600019168152602001826000191660001916815260200194505050505060206040516020810390808403906000865af11580156107dd573d6000803e3d6000fd5b5050506020604051035193505b505050929150505600a165627a7a7230582087f7148c5e4641a5c8ae73166c26f7d23df52c8d822ac6c3271b4218d5d064b80029",
  "source": "pragma solidity ^0.4.24;\n\nimport \"zeppelin-solidity/contracts/math/SafeMath.sol\";\nimport \"zeppelin-solidity/contracts/ECRecovery.sol\";\n\n/**\n * @title SimplePaymentChannel\n * @author Eric Olszewski <eolszewski@gmail.com>\n *\n * @dev Ethereum payment channels allow for off-chain transactions with an on-chain\n * settlement. In this implementation, a party (sender) can open a channel with a \n * deposit, expiration, and recipient. The sender can then sign transactions off-chain\n * and send them to the recipient, who can submit one of these signed transactions to \n * chain to close and settle the channel.\n */\ncontract SimplePaymentChannel {\n    using SafeMath for uint256;\n    using ECRecovery for bytes32;\n\n    //============================================================================\n    // EVENTS\n    //============================================================================\n\n    event ChannelOpened(address sender, address recipient, uint expiration, uint256 deposit);\n    event ChannelClosed(uint256 senderBalance, uint256 recipientBalance);\n\n    // Creator of channel\n    address public sender;\n    // Recipient of channel\n    address public recipient;\n    // When sender can close the channel\n    uint256 public expiration;\n\n    //============================================================================\n    // PUBLIC FUNCTIONS\n    //============================================================================\n\n    /**\n    * @dev Constructor\n    * @param _recipient address Address of the receiving party\n    * @param _duration uint256 Time period past creation that defines expiration\n    */\n    constructor(address _recipient, uint256 _duration) public payable {\n        // sanity checks\n        require(msg.value > 0);\n        require(msg.sender != _recipient);\n\n        sender = msg.sender;\n        recipient = _recipient;\n        expiration = now + _duration;\n\n        emit ChannelOpened(sender, recipient, expiration, msg.value);\n    }\n\n    /**\n    * @dev Close a channel with a signed message from the sender\n    * @param _balance uint256 The balance agreed to by the sender in their signed message\n    * @param _signedMessage bytes The signed hash of the balance by the sender\n    */\n    function closeChannel(uint256 _balance, bytes _signedMessage) public {\n        // only recipient can call closeChannel\n        require(msg.sender == recipient);\n        require(isValidSignature(_balance, _signedMessage));\n\n        // temp vars for calculating sender and recipient remittances\n        uint256 balance = _balance;\n        uint256 remainder = 0;\n\n        // if _balance > address(this).balance, send address(this).balance to recipient\n        if (_balance > address(this).balance) {\n            balance = address(this).balance;\n        } else {\n            remainder = address(this).balance.sub(balance);\n        }\n\n        // remit payment to recipient\n        recipient.transfer(balance);\n\n        emit ChannelClosed(remainder, balance);\n\n        // remit remainder to sender\n        selfdestruct(sender);\n    }\n\n    /**\n    * @dev Extend the expiration date of the channel\n    * @param _expiration uint256 Updated expiration date\n    */\n    function extendExpiration(uint256 _expiration) public {\n        // only sender can call extendExpiration\n        require(msg.sender == sender);\n        require(_expiration > expiration);\n\n        // update expiration\n        expiration = _expiration;\n    }\n\n    /**\n    * @dev Allows sender to claim channel balance if expired\n    */\n    function claimTimeout() public {\n        // must be beyond expiration date\n        require(now >= expiration);\n\n        // remit payment to sender\n        selfdestruct(sender);\n    }\n\n    //============================================================================\n    // INTERNAL FUNCTIONS\n    //============================================================================\n\n    /**\n    * @dev Derive and verify sender address from signed message and message hash\n    * @param _balance uint256 The balance agreed to by the sender in their signed message\n    * @param _signedMessage bytes The signed hash of the balance by the sender\n    */\n    function isValidSignature(uint256 _balance, bytes _signedMessage)\n        internal\n        view\n        returns (bool)\n    {\n        bytes32 message = prefixed(keccak256(abi.encodePacked(address(this), _balance)));\n\n        // check that the signature is from the payment sender\n        return message.recover(_signedMessage) == sender;\n    }\n\n    /**\n    * @dev Builds a prefixed hash to mimic the behavior of eth_sign\n    * @param _hash bytes32 Message hash to be prefixed\n    */\n    function prefixed(bytes32 _hash)\n        internal\n        pure\n        returns (bytes32)\n    {\n        return keccak256(abi.encodePacked(\"\\x19Ethereum Signed Message:\\n32\", _hash));\n    }\n}",
  "sourcePath": "/Users/admin/Documents/projects/unity/code/mobile/contracts/SimplePaymentChannel.sol",
  "compiler": {
    "name": "solc",
    "version": "0.4.24+commit.e67f0147.Emscripten.clang"
  },
  "schemaVersion": "2.0.1",
  "updatedAt": "2018-09-23T20:25:37.973Z"
}